:100000000C942A000C9447000C9447000C94470071
:100010000C9447000C9447000C9447000C94470044
:100020000C9447000C9447000C9447000C94470034
:100030000C9447000C9477000C9447000C944700F4
:100040000C9447000C9447000C9447000C94470014
:100050000C94470011241FBECFE5D8E0DEBFCDBF12
:1000600011E0A0E6B0E0E8EBF2E102C005900D92ED
:10007000AE3CB107D9F722E0AEECB1E001C01D9271
:10008000A33DB207E1F70E943D050C945A090C9478
:1000900000009B01AC0184E0220F331F441F551F59
:1000A0008A95D1F760E472E48FE090E00E94C30586
:1000B000215031098AB188698AB980B5866880BDC6
:1000C00029B930BD08955F9BFECF8CB108958CB9DE
:1000D0005D9BFECF0895CF93DF93EC018991882338
:1000E00019F00E946700FACFDF91CF9108951F9217
:1000F0000F920FB60F9211248F939F93EF93FF935C
:100100005F9BFECFE091B302F091B4028CB1E95253
:10011000FE4F80838091B3029091B4020196909338
:10012000B4028093B30281E08093D001FF91EF91FC
:100130009F918F910F900FBE0F901F901895579819
:100140001092B4021092B302E091B302F091B402A3
:10015000E952FE4F1082089557980895579A0895CE
:10016000BC0185EB92E00E941706DC980895AF92DF
:10017000BF92CF92DF92EF92FF920F931F93CF9394
:10018000DF93CDB7DEB72E970FB6F894DEBF0FBE64
:10019000CDBF8E010F5F1F4F2AE0F80111922A9503
:1001A000E9F71B861C861D861E865C01C12CD12C9E
:1001B000E12CF12CF50191915F01992331F19A33F2
:1001C000D1F0892F990F990BC114D10439F40E94F1
:1001D0000306F801EE0DFF1D808313C00E94030685
:1001E000EBE0F0E0EC0FFD1FEE0DFF1D8083CC2453
:1001F000C394D12C06C0CC24C394D12CEE24EA9411
:10020000FE2CFFEFEF1AFF0AD5CF61E870E0CE01B8
:100210000B960E942206892B09F069C064E870E001
:10022000C8010E942206892B51F4D89B05C0D8989A
:10023000DC9A67E870E016C08EE890E0BAC069E921
:1002400070E0C8010E942206892B19F581E090E038
:100250009093D6018093D501D99B18C0D998DC9A88
:100260006CE970E085EB92E02E960FB6F894DEBF55
:100270000FBECDBFDF91CF911F910F91FF90EF90F7
:10028000DF90CF90BF90AF900C94170683EA90E078
:1002900090C06EEA70E0C8010E942206892B81F4AA
:1002A00082E090E09093D6018093D501DA9B05C05F
:1002B000DA98DC9A61EB70E0D5CF88EB90E079C0FA
:1002C00063EC70E0C8010E942206892BC9F583E027
:1002D00090E09093D6018093D501DB9B05C0DB981D
:1002E000DC9A66EC70E0BECF8DEC90E062C06CEE04
:1002F00070E0CE010B960E942206892B09F057C0B0
:100300001092D4011092D30164E870E0C8010E94F9
:100310002206892BC1F069E970E0C8010E9422061B
:10032000892BD9F06EEA70E0C8010E942206892B61
:10033000F1F063EC70E0C8010E942206892B39F1CC
:1003400088ED90E036C0D89B03C080EF90E031C0CC
:10035000D89ADC9A6CEF70E085CFD99B03C084E01B
:1003600091E027C0D99ADC9A60E171E07BCF82E00E
:1003700090E09093D6018093D501DA9B03C088E189
:1003800091E017C0DA9ADC9A64E271E06BCF83E007
:1003900090E09093D6018093D501DB9B03C08CE263
:1003A00091E007C0DB9ADC9A68E371E05BCF80E400
:1003B00091E02E960FB6F894DEBF0FBECDBFDF9151
:1003C000CF911F910F91FF90EF90DF90CF90BF9052
:1003D000AF900C94B000CF93DF9300D0CDB7DEB7D1
:1003E0008CE290E09A838983BE016F5F7F4F87E73D
:1003F00092E00E940B06009741F00E94B700BE01F8
:100400006F5F7F4F80E090E0F4CF0F900F90DF910F
:10041000CF9108956FE471E085EB92E00E9417069A
:10042000D89B03C06CEF70E002C067E870E085EB1A
:1004300092E00E941706D99B03C060E171E002C000
:100440006CE970E085EB92E00E941706DA9B03C02E
:1004500064E271E002C061EB70E085EB92E00E9423
:100460001706DB9B03C068E371E002C066EC70E036
:1004700085EB92E00C9417060F931F93CF93DF93B5
:10048000CDB7DEB764970FB6F894DEBF0FBECDBF11
:100490001092B4021092B3029F938F9388E591E07B
:1004A0009F938F938E010F5F1F4F1F930F930E9497
:1004B0008206C8010E946B000F900F900F900F9062
:1004C0000F900F9064960FB6F894DEBF0FBECDBFAD
:1004D000DF91CF911F910F91089584E691E00C94E4
:1004E0006B00CF93DF9300D000D0CDB7DEB72FE9FC
:1004F00086E891E0215080409040E1F700C0000084
:100500001092B4021092B302E091B302F091B402DF
:10051000E952FE4F80818D3049F0E091B302F091B5
:10052000B402E952FE4F80818A3051F48091B302C7
:100530009091B40201969093B4028093B302E4CFF9
:1005400068E771E087ED91E00E943906892B11F48C
:1005500080E055C0E091B302F091B402E952FE4F41
:1005600080818C3251F08091B3029091B402019657
:100570009093B4028093B302EDCF8091B302909137
:10058000B40201969093B4028093B302FE013196B7
:10059000CF01A091B302B091B402A952BE4F2C91E9
:1005A0002D3099F0A091B302B091B402A952BE4F80
:1005B0002C9121932091B3023091B4022F5F3F4FD1
:1005C0003093B4022093B302E4CF0E94E5059093E8
:1005D000CF018093CE01E7EDF1E001900020E9F733
:1005E0003197AF01475D514060E070E087ED91E0E9
:1005F0000E9410061092B4021092B30281E00F9094
:100600000F900F900F90DF91CF910895CF92DF92CE
:10061000EF92FF920F931F93CF93DF93CDB7DEB787
:10062000A3970FB6F894DEBF0FBECDBF6B0110923B
:10063000B4021092B3029F938F938EE791E09F9341
:100640008F93CE0101967C019F938F930E94820627
:10065000C7010E946B008FE493EC0197F1F700C093
:1006600000000F900F900F900F900F900F90E0915F
:10067000B302F091B40207ED11E0E952FE4F808120
:100680008E3309F04DC01092B4021092B302F801FB
:1006900001900020E9F73197AF01475D514060E0DC
:1006A00070E0C8010E941006C6010E946B008AE13A
:1006B0000E9467009FE52AEE80E091502040804034
:1006C000E1F700C000001092B4021092B302F801EA
:1006D00001900020E9F73197AF01475D514060E09C
:1006E00070E0C8010E941006F70101900020E9F7B0
:1006F0003197AF014E195F0960E070E0C7010E94B9
:100700001006A3960FB6F894DEBF0FBECDBFDF91E3
:10071000CF911F910F91FF90EF90DF90CF900895B0
:100720008091B3029091B40201969093B4028093A9
:10073000B3029DCF0F931F93CF93DF93CDB7DEB757
:1007400063970FB6F894DEBF0FBECDBF9F938F9314
:100750008CE891E09F938F938E010F5F1F4F1F9343
:100760000F930E948206C8010E946B000F900F90A9
:100770000F900F900F900F9063960FB6F894DEBF16
:100780000FBECDBFDF91CF911F910F91089584E9E6
:1007900091E00C946B008F929F92AF92BF92CF9298
:1007A000DF92EF92FF920F931F93CF93DF9300D0CE
:1007B000CDB7DEB7E12CF12C97EDA92E91E0B92E43
:1007C000F50101900020E9F731978F01075D114095
:1007D000B9F183EF91E00197F1F700C000009FEFBE
:1007E000E91AF90AF50101900020E9F73197E75D70
:1007F000F1400E171F0721F587EDC82E81E0D82E96
:10080000812C912CC601875D914080179107C4F41B
:100810008A818983F60181916F018A8342E050E0E9
:1008200069E971E0CE0101960E942B06892B51F3F4
:10083000C4010196F2E08F16910489F04C01E2CFD9
:1008400089EF90E00197F1F700C000009FEFE91AEF
:10085000F90AE0E6EE16EAEEFE0608F4B1CF0F90D4
:100860000F90DF91CF911F910F91FF90EF90DF904C
:10087000CF90BF90AF909F908F9008958CE991E0BA
:100880000E946B002FE986E891E021508040904063
:10089000E1F700C0000062EA71E087ED91E00E949C
:1008A0003906892B59F30E94CB0380EAE7EDF1E08A
:1008B000DF011D928A95E9F71BBA1092D0010895C5
:1008C00065EA71E087ED91E00E943906892B09F411
:1008D00099C01092B4021092B302E091B302F09169
:1008E000B402E952FE4F80818D3049F0E091B302AD
:1008F000F091B402E952FE4F80818E3651F480911E
:10090000B3029091B40201969093B4028093B30223
:10091000E4CFE091B302F091B402E952FE4F80813E
:100920008C3251F08091B3029091B4020196909371
:10093000B4028093B302EDCF8091B3029091B402E0
:1009400002969093B4028093B302E2E7F0E0A091A4
:10095000B302B091B402A952BE4F8C9181938091A1
:10096000B3029091B40201969093B4028093B302C3
:1009700080E0E038F80759F78091B3029091B40213
:1009800001969093B4028093B302E091B302F09188
:10099000B402EA52FE4F80818A3071F7E7E7F2E055
:1009A000A091B302B091B402A952BE4F8C918D3088
:1009B000B1F082E0E639F80791F0A091B302B0916E
:1009C000B402A952BE4F8C9181938091B302909151
:1009D000B40201969093B4028093B302E1CF1092D7
:1009E000B4021092B302E7EDF1E001900020E9F7C4
:1009F0003197AF01475D514060E070E087ED91E0D5
:100A00000E9410061092D00108950F931F93CF9368
:100A1000DF93CDB7DEB72B970FB6F894DEBF0FBECE
:100A2000CDBF9F938F938BEA91E09F938F938E011D
:100A30000F5F1F4F1F930F930E948206C8010E94F1
:100A40006B002FEB87E299E0215080409040E1F766
:100A500000C000000E9460040F900F900F900F9054
:100A60000F900F902B960FB6F894DEBF0FBECDBF40
:100A7000DF91CF911F910F9108958FEF8ABB8BBBB0
:100A80001092B4021092B3028CE3E7E7F2E0DF01C8
:100A90001D928A95E9F760E875E280E090E00E9497
:100AA00049007894BFE926E881E0B15020408040B9
:100AB000E1F700C000001EE1DEE0CCE38091D00150
:100AC000813009F04AC00E947102882309F443C0B2
:100AD0008091CE019091CF010E9405059FE3ADE08A
:100AE000B3E09150A040B040E1F700C0000067EBD8
:100AF00071E082E790E00E943906892B19F166ECDB
:100B000071E087E792E00E943906892B51F00E943C
:100B10000A022FE78AE196E0215080409040E1F7F9
:100B200009C00E94EB01AFE7BAE126E0A150B04056
:100B30002040E1F700C0000065EB72E082E790E042
:100B40000E9406038FE79AE1A6E081509040A04002
:100B5000E1F700C000001092D001E5EBF2E0DF0108
:100B6000212F1D922A95E9F7E2E7F0E0DF012D2F12
:100B70001D922A95E9F7E7E7F2E0DF012C2F1D929D
:100B80002A95E9F79BCFA1E21A2EAA1BBB1BFD01F8
:100B90000DC0AA1FBB1FEE1FFF1FA217B307E4075C
:100BA000F50720F0A21BB30BE40BF50B661F771FB4
:100BB000881F991F1A9469F7609570958095909594
:100BC0009B01AC01BD01CF010895FC018827992745
:100BD000E89421912032E9F3293010F02E30C8F347
:100BE0002B3241F02D3239F4689404C00E947A0609
:100BF000820F911D219120532A30C0F31EF490954D
:100C000081959F4F08959111089581548A5108F458
:100C1000805E855A089541ED51E00E945306089583
:100C2000DC0101C06D9341505040E0F70895FB0195
:100C3000DC010D900020E9F7119701900D92002042
:100C4000E1F70895FB01DC018D91019080190110FD
:100C5000D9F3990B0895FB01DC014150504030F06D
:100C60008D910190801919F40020B9F7881B990B18
:100C70000895FB0151915523A9F0BF01DC014D916D
:100C800045174111E1F759F4CD010190002049F0D9
:100C90004D9140154111C9F3FB014111EFCF81E0A6
:100CA00090E001970895FA01A191B081009719F49D
:100CB0001097E1F0CD01DC01CD010D90002011F481
:100CC000C00113C0FB012191222319F02015D9F78F
:100CD000F3CFFB012191201519F41E92119606C045
:100CE0002223C1F70D900020A1F7D001FA01A193B2
:100CF000B08308957AE0979F902D879F802D910D66
:100D000011240895AEE0B0E0E8E8F6E00C94310973
:100D10000D891E8986E08C831A8309838FEF9FE7F4
:100D20009E838D83AE01475E5F4F6F89788DCE01C4
:100D300001960E94A5062F813885F801E20FF31F66
:100D400010822E96E4E00C944D09ACE0B0E0EBEAA2
:100D5000F6E00C9423097C016B018A01FC011782E7
:100D60001682838181FFBDC1CE0101964C01F7013E
:100D70009381F60193FD859193FF81916F01882303
:100D800009F4ABC1853239F493FD859193FF8191CC
:100D90006F01853229F4B70190E00E948D08E7CFFA
:100DA000512C312C20E02032A0F48B3269F030F449
:100DB000803259F0833269F420612CC08D3239F0D1
:100DC000803339F4216026C02260246023C028606B
:100DD00021C027FD27C030ED380F3A3078F426FFC8
:100DE00006C0FAE05F9E300D1124532E13C08AE036
:100DF000389E300D1124332E20620CC08E3221F427
:100E000026FD6BC1206406C08C3611F4206802C038
:100E1000883641F4F60193FD859193FF81916F012E
:100E20008111C1CF982F9F7D9554933028F40C5F8A
:100E30001F4FFFE3F9830DC0833631F0833771F024
:100E4000833509F05BC022C0F801808189830E5F81
:100E50001F4F44244394512C540115C03801F2E033
:100E60006F0E711CF801A080B18026FF03C0652DB4
:100E700070E002C06FEF7FEFC5012C870E948208EF
:100E80002C0183012C852F77222E17C03801F2E028
:100E90006F0E711CF801A080B18026FF03C0652D84
:100EA00070E002C06FEF7FEFC5012C870E947708CA
:100EB0002C012C852068222E830123FC1BC0832D4E
:100EC00090E048165906B0F4B70180E290E00E9425
:100ED0008D083A94F4CFF50127FC859127FE819186
:100EE0005F01B70190E00E948D0831103A94F1E063
:100EF0004F1A51084114510471F7E5C0843611F0BE
:100F0000893639F5F80127FF07C060817181828138
:100F100093810C5F1F4F08C060817181072E000C08
:100F2000880B990B0E5F1F4F2F76722E97FF09C00B
:100F300090958095709561957F4F8F4F9F4F20685A
:100F4000722E2AE030E0A4010E94C508A82EA8183D
:100F500044C0853729F42F7EB22E2AE030E025C028
:100F6000F22FF97FBF2E8F36C1F018F4883579F053
:100F7000B4C0803719F0883721F0AFC02F2F20611F
:100F8000B22EB4FE0DC08B2D8460B82E09C024FF94
:100F90000AC09F2F9660B92E06C028E030E005C039
:100FA00020E130E002C020E132E0F801B7FE07C0E6
:100FB00060817181828193810C5F1F4F06C06081C7
:100FC000718180E090E00E5F1F4FA4010E94C50870
:100FD000A82EA818FB2DFF777F2E76FE0BC0372D8D
:100FE0003E7FA51450F474FE0AC072FC08C0372D71
:100FF0003E7E05C0BA2C372D03C0BA2C01C0B52CDB
:1010000034FF0DC0FE01EA0DF11D8081803311F423
:10101000397E09C032FF06C0B394B39404C0832F55
:10102000867809F0B39433FD13C030FF06C05A2C04
:10103000B31418F4530C5B18B32CB31468F4B70151
:1010400080E290E03C870E948D08B3943C85F5CF08
:10105000B31410F43B1801C0312C34FF12C0B70197
:1010600080E390E03C870E948D083C8532FF17C0EA
:1010700031FD03C088E790E002C088E590E0B70149
:101080000CC0832F867859F031FF02C08BE201C07B
:1010900080E237FD8DE2B70190E00E948D08A51433
:1010A00038F4B70180E390E00E948D085A94F7CF9E
:1010B000AA94F401EA0DF11D8081B70190E00E942D
:1010C0008D08A110F5CF332009F451CEB70180E28D
:1010D00090E00E948D083A94F6CFF70186819781BF
:1010E00002C08FEF9FEF2C96E2E10C943F09FC01C8
:1010F0000590615070400110D8F7809590958E0F43
:101100009F1F0895FC016150704001900110D8F7B5
:10111000809590958E0F9F1F08950F931F93CF93E7
:10112000DF93FB01238121FD03C08FEF9FEF28C0D8
:1011300022FF16C04681578124813581421753070B
:1011400044F4A081B1819D012F5F3F4F3183208303
:101150008C93268137812F5F3F4F3783268310C0C2
:10116000EB01092F182F0084F185E02D0995892BBB
:10117000E1F68E819F8101969F838E83812F902F30
:10118000DF91CF911F910F910895FA01AA2728307E
:1011900051F1203181F1E8946F936E7F6E5F7F4F44
:1011A0008F4F9F4FAF4FB1E03ED0B4E03CD0670FC0
:1011B000781F891F9A1FA11D680F791F8A1F911D13
:1011C000A11D6A0F711D811D911DA11D20D009F463
:1011D00068943F912AE0269F11243019305D3193A5
:1011E000DEF6CF010895462F4770405D4193B3E08E
:1011F0000FD0C9F7F6CF462F4F70405D4A3318F035
:10120000495D31FD4052419302D0A9F7EACFB4E0E5
:10121000A6959795879577956795BA95C9F700979D
:101220006105710508959B01AC010A2E069457953E
:10123000479537952795BA95C9F7620F731F841F95
:10124000951FA01D08952F923F924F925F926F922B
:101250007F928F929F92AF92BF92CF92DF92EF9246
:10126000FF920F931F93CF93DF93CDB7DEB7CA1BC7
:10127000DB0B0FB6F894DEBF0FBECDBF09942A88F2
:10128000398848885F846E847D848C849B84AA849A
:10129000B984C884DF80EE80FD800C811B81AA8127
:1012A000B981CE0FD11D0FB6F894DEBF0FBECDBFF2
:0812B000ED010895F894FFCF51
:1012B8004920646F206E6F74206865617220796FB1
:1012C80075002B38383031353137383030313533D7
:1012D800006F6E0062310062313A6F6E2000623139
:1012E8003A616C72206F6E200062320062323A6F8F
:1012F8006E200062323A616C72206F6E2000623399
:101308000062333A6F6E200062333A616C72206F6C
:101318006E200062340062343A6F6E200062343A04
:10132800616C72206F6E2000696E76616C69645F13
:101338006465766963655F6E616D65006F666600FA
:1013480062313A616C72206F6666200062313A6FD2
:101358006666200062323A616C72206F6666200011
:1013680062323A6F6666200062333A616C72206FAF
:101378006666200062333A6F6666200062343A611E
:101388006C72206F6666200062343A6F66662000D1
:10139800496E76616C69642073746174652E00739C
:1013A80074617475733A200041542B434D47443D92
:1013B80025640D0041542B434D4744413D2244458B
:1013C8004C20414C4C220D00434D54493A004154A5
:1013D8002B434D47533D222573220D00415444258C
:1013E800733B0D004154480D000D0A00415445302F
:1013F8000D004F4B002B434D47520041542B434D9A
:1014080047523D25640D002B383830313531373897
:0E141800303031353300737461747573000029
:00000001FF
